{
  "contractName": "Marketplace",
  "abi": [
    {
      "inputs": [],
      "stateMutability": "nonpayable",
      "type": "constructor"
    },
    {
      "anonymous": false,
      "inputs": [
        {
          "indexed": false,
          "internalType": "address",
          "name": "nftContract",
          "type": "address"
        },
        {
          "indexed": false,
          "internalType": "uint256",
          "name": "tokenId",
          "type": "uint256"
        },
        {
          "indexed": false,
          "internalType": "address",
          "name": "seller",
          "type": "address"
        },
        {
          "indexed": false,
          "internalType": "address",
          "name": "owner",
          "type": "address"
        },
        {
          "indexed": false,
          "internalType": "uint256",
          "name": "price",
          "type": "uint256"
        }
      ],
      "name": "NFTListed",
      "type": "event"
    },
    {
      "anonymous": false,
      "inputs": [
        {
          "indexed": false,
          "internalType": "address",
          "name": "nftContract",
          "type": "address"
        },
        {
          "indexed": false,
          "internalType": "uint256",
          "name": "tokenId",
          "type": "uint256"
        },
        {
          "indexed": false,
          "internalType": "address",
          "name": "seller",
          "type": "address"
        },
        {
          "indexed": false,
          "internalType": "address",
          "name": "owner",
          "type": "address"
        },
        {
          "indexed": false,
          "internalType": "uint256",
          "name": "price",
          "type": "uint256"
        }
      ],
      "name": "NFTSold",
      "type": "event"
    },
    {
      "inputs": [],
      "name": "LISTING_FEE",
      "outputs": [
        {
          "internalType": "uint256",
          "name": "",
          "type": "uint256"
        }
      ],
      "stateMutability": "view",
      "type": "function",
      "constant": true
    },
    {
      "inputs": [
        {
          "internalType": "address",
          "name": "_nftContract",
          "type": "address"
        },
        {
          "internalType": "uint256",
          "name": "_tokenId",
          "type": "uint256"
        },
        {
          "internalType": "string",
          "name": "_name",
          "type": "string"
        },
        {
          "internalType": "string",
          "name": "_tokenURI",
          "type": "string"
        },
        {
          "internalType": "uint256",
          "name": "_price",
          "type": "uint256"
        }
      ],
      "name": "listNFT",
      "outputs": [],
      "stateMutability": "payable",
      "type": "function",
      "payable": true
    },
    {
      "inputs": [
        {
          "internalType": "address",
          "name": "_nftContract",
          "type": "address"
        },
        {
          "internalType": "uint256",
          "name": "_tokenId",
          "type": "uint256"
        }
      ],
      "name": "buyNFT",
      "outputs": [],
      "stateMutability": "payable",
      "type": "function",
      "payable": true
    },
    {
      "inputs": [
        {
          "internalType": "address",
          "name": "_nftContract",
          "type": "address"
        },
        {
          "internalType": "uint256",
          "name": "_tokenId",
          "type": "uint256"
        }
      ],
      "name": "resellNFT",
      "outputs": [],
      "stateMutability": "payable",
      "type": "function",
      "payable": true
    },
    {
      "inputs": [],
      "name": "getListingFee",
      "outputs": [
        {
          "internalType": "uint256",
          "name": "",
          "type": "uint256"
        }
      ],
      "stateMutability": "view",
      "type": "function",
      "constant": true
    },
    {
      "inputs": [
        {
          "internalType": "uint256",
          "name": "_tokenId",
          "type": "uint256"
        }
      ],
      "name": "getTokenForId",
      "outputs": [
        {
          "components": [
            {
              "internalType": "address",
              "name": "nftContract",
              "type": "address"
            },
            {
              "internalType": "uint256",
              "name": "tokenId",
              "type": "uint256"
            },
            {
              "internalType": "address payable",
              "name": "seller",
              "type": "address"
            },
            {
              "internalType": "address payable",
              "name": "owner",
              "type": "address"
            },
            {
              "internalType": "string",
              "name": "tokenURI",
              "type": "string"
            },
            {
              "internalType": "string",
              "name": "name",
              "type": "string"
            },
            {
              "internalType": "uint256",
              "name": "price",
              "type": "uint256"
            },
            {
              "internalType": "bool",
              "name": "isListed",
              "type": "bool"
            }
          ],
          "internalType": "struct Marketplace.Token",
          "name": "",
          "type": "tuple"
        }
      ],
      "stateMutability": "view",
      "type": "function",
      "constant": true
    },
    {
      "inputs": [],
      "name": "getMarketPlaceBalance",
      "outputs": [
        {
          "internalType": "uint256",
          "name": "",
          "type": "uint256"
        }
      ],
      "stateMutability": "view",
      "type": "function",
      "constant": true
    },
    {
      "inputs": [],
      "name": "getItemsCount",
      "outputs": [
        {
          "internalType": "uint256",
          "name": "",
          "type": "uint256"
        }
      ],
      "stateMutability": "view",
      "type": "function",
      "constant": true
    },
    {
      "inputs": [],
      "name": "getItemsSold",
      "outputs": [
        {
          "internalType": "uint256",
          "name": "",
          "type": "uint256"
        }
      ],
      "stateMutability": "view",
      "type": "function",
      "constant": true
    }
  ],
  "bytecode": "0x6080604052655af3107a400060035534801561001a57600080fd5b50600160008190555033600460006101000a81548173ffffffffffffffffffffffffffffffffffffffff021916908373ffffffffffffffffffffffffffffffffffffffff160217905550611983806100736000396000f3fe6080604052600436106100865760003560e01c8063a82ba76f11610059578063a82ba76f1461013a578063b4c49d0914610156578063b8fe6abe14610181578063c4b15141146101ac578063eb9597d1146101d757610086565b80632444a8a61461008b5780632b86ae38146100c8578063512dd020146100f35780639e1001b01461011e575b600080fd5b34801561009757600080fd5b506100b260048036038101906100ad919061102c565b6101f3565b6040516100bf9190611235565b60405180910390f35b3480156100d457600080fd5b506100dd610476565b6040516100ea9190611266565b60405180910390f35b3480156100ff57600080fd5b5061010861047c565b6040516101159190611266565b60405180910390f35b610138600480360381019061013391906112ad565b61048d565b005b610154600480360381019061014f91906112ad565b6106db565b005b34801561016257600080fd5b5061016b610aa0565b6040516101789190611266565b60405180910390f35b34801561018d57600080fd5b50610196610aa8565b6040516101a39190611266565b60405180910390f35b3480156101b857600080fd5b506101c1610ab2565b6040516101ce9190611266565b60405180910390f35b6101f160048036038101906101ec9190611422565b610ac3565b005b6101fb610eb6565b60056000838152602001908152602001600020604051806101000160405290816000820160009054906101000a900473ffffffffffffffffffffffffffffffffffffffff1673ffffffffffffffffffffffffffffffffffffffff1673ffffffffffffffffffffffffffffffffffffffff168152602001600182015481526020016002820160009054906101000a900473ffffffffffffffffffffffffffffffffffffffff1673ffffffffffffffffffffffffffffffffffffffff1673ffffffffffffffffffffffffffffffffffffffff1681526020016003820160009054906101000a900473ffffffffffffffffffffffffffffffffffffffff1673ffffffffffffffffffffffffffffffffffffffff1673ffffffffffffffffffffffffffffffffffffffff16815260200160048201805461033690611504565b80601f016020809104026020016040519081016040528092919081815260200182805461036290611504565b80156103af5780601f10610384576101008083540402835291602001916103af565b820191906000526020600020905b81548152906001019060200180831161039257829003601f168201915b505050505081526020016005820180546103c890611504565b80601f01602080910402602001604051908101604052809291908181526020018280546103f490611504565b80156104415780601f1061041657610100808354040283529160200191610441565b820191906000526020600020905b81548152906001019060200180831161042457829003601f168201915b50505050508152602001600682015481526020016007820160009054906101000a900460ff1615151515815250509050919050565b60035481565b60006104886002610e36565b905090565b6002600054036104d2576040517f08c379a00000000000000000000000000000000000000000000000000000000081526004016104c990611592565b60405180910390fd5b600260008190555060008273ffffffffffffffffffffffffffffffffffffffff16636352211e836040518263ffffffff1660e01b81526004016105159190611266565b602060405180830381865afa158015610532573d6000803e3d6000fd5b505050506040513d601f19601f8201168201806040525081019061055691906115c7565b9050600354341461059c576040517f08c379a000000000000000000000000000000000000000000000000000000000815260040161059390611640565b60405180910390fd5b8273ffffffffffffffffffffffffffffffffffffffff166323b872dd8230856040518463ffffffff1660e01b81526004016105d99392919061166f565b600060405180830381600087803b1580156105f357600080fd5b505af1158015610607573d6000803e3d6000fd5b505050506000600560008481526020019081526020016000209050338160020160006101000a81548173ffffffffffffffffffffffffffffffffffffffff021916908373ffffffffffffffffffffffffffffffffffffffff16021790555060018160070160006101000a81548160ff02191690831515021790555061068c6001610e44565b7fa0c6c0d02d86fdacecbaa5fdf5894bab204e31a778250474108540733a9b8d19848433306003546040516106c59594939291906116a6565b60405180910390a1505060016000819055505050565b600260005403610720576040517f08c379a000000000000000000000000000000000000000000000000000000000815260040161071790611592565b60405180910390fd5b600260008190555060008273ffffffffffffffffffffffffffffffffffffffff16636352211e836040518263ffffffff1660e01b81526004016107639190611266565b602060405180830381865afa158015610780573d6000803e3d6000fd5b505050506040513d601f19601f820116820180604052508101906107a491906115c7565b905060006005600084815260200190815260200160002090508060060154341015610804576040517f08c379a00000000000000000000000000000000000000000000000000000000081526004016107fb9061176b565b60405180910390fd5b60003390508160020160009054906101000a900473ffffffffffffffffffffffffffffffffffffffff1673ffffffffffffffffffffffffffffffffffffffff166108fc349081150290604051600060405180830381858888f19350505050158015610873573d6000803e3d6000fd5b508473ffffffffffffffffffffffffffffffffffffffff166323b872dd843385600101546040518463ffffffff1660e01b81526004016108b59392919061166f565b600060405180830381600087803b1580156108cf57600080fd5b505af11580156108e3573d6000803e3d6000fd5b505050508473ffffffffffffffffffffffffffffffffffffffff1663a22cb4653360016040518363ffffffff1660e01b815260040161092392919061179a565b600060405180830381600087803b15801561093d57600080fd5b505af1158015610951573d6000803e3d6000fd5b50505050600460009054906101000a900473ffffffffffffffffffffffffffffffffffffffff1673ffffffffffffffffffffffffffffffffffffffff166108fc6003549081150290604051600060405180830381858888f193505050501580156109bf573d6000803e3d6000fd5b50808260020160006101000a81548173ffffffffffffffffffffffffffffffffffffffff021916908373ffffffffffffffffffffffffffffffffffffffff16021790555060008260070160006101000a81548160ff021916908315150217905550610a2a6001610ea0565b7f16f1dbd97e6bf646d429ed186cce832f1f7fd9907814293b83181e9970ab7bd28583600101548460020160009054906101000a900473ffffffffffffffffffffffffffffffffffffffff168434604051610a89959493929190611822565b60405180910390a150505060016000819055505050565b600047905090565b6000600354905090565b6000610abe6001610e36565b905090565b600260005403610b08576040517f08c379a0000000000000000000000000000000000000000000000000000000008152600401610aff90611592565b60405180910390fd5b600260008190555060003411610b53576040517f08c379a0000000000000000000000000000000000000000000000000000000008152600401610b4a906118c1565b60405180910390fd5b6003543414610b97576040517f08c379a0000000000000000000000000000000000000000000000000000000008152600401610b8e90611640565b60405180910390fd5b8473ffffffffffffffffffffffffffffffffffffffff166323b872dd3330876040518463ffffffff1660e01b8152600401610bd49392919061166f565b600060405180830381600087803b158015610bee57600080fd5b505af1158015610c02573d6000803e3d6000fd5b50505050610c106002610ea0565b6040518061010001604052808673ffffffffffffffffffffffffffffffffffffffff1681526020018581526020013373ffffffffffffffffffffffffffffffffffffffff1681526020013373ffffffffffffffffffffffffffffffffffffffff168152602001838152602001848152602001828152602001600115158152506005600086815260200190815260200160002060008201518160000160006101000a81548173ffffffffffffffffffffffffffffffffffffffff021916908373ffffffffffffffffffffffffffffffffffffffff1602179055506020820151816001015560408201518160020160006101000a81548173ffffffffffffffffffffffffffffffffffffffff021916908373ffffffffffffffffffffffffffffffffffffffff16021790555060608201518160030160006101000a81548173ffffffffffffffffffffffffffffffffffffffff021916908373ffffffffffffffffffffffffffffffffffffffff1602179055506080820151816004019080519060200190610d9d929190610f3f565b5060a0820151816005019080519060200190610dba929190610f3f565b5060c0820151816006015560e08201518160070160006101000a81548160ff0219169083151502179055509050507fa0c6c0d02d86fdacecbaa5fdf5894bab204e31a778250474108540733a9b8d198585333085604051610e1f9594939291906116a6565b60405180910390a160016000819055505050505050565b600081600001549050919050565b60008160000154905060008111610e90576040517f08c379a0000000000000000000000000000000000000000000000000000000008152600401610e879061192d565b60405180910390fd5b6001810382600001819055505050565b6001816000016000828254019250508190555050565b604051806101000160405280600073ffffffffffffffffffffffffffffffffffffffff16815260200160008152602001600073ffffffffffffffffffffffffffffffffffffffff168152602001600073ffffffffffffffffffffffffffffffffffffffff1681526020016060815260200160608152602001600081526020016000151581525090565b828054610f4b90611504565b90600052602060002090601f016020900481019282610f6d5760008555610fb4565b82601f10610f8657805160ff1916838001178555610fb4565b82800160010185558215610fb4579182015b82811115610fb3578251825591602001919060010190610f98565b5b509050610fc19190610fc5565b5090565b5b80821115610fde576000816000905550600101610fc6565b5090565b6000604051905090565b600080fd5b600080fd5b6000819050919050565b61100981610ff6565b811461101457600080fd5b50565b60008135905061102681611000565b92915050565b60006020828403121561104257611041610fec565b5b600061105084828501611017565b91505092915050565b600073ffffffffffffffffffffffffffffffffffffffff82169050919050565b600061108482611059565b9050919050565b61109481611079565b82525050565b6110a381610ff6565b82525050565b60006110b482611059565b9050919050565b6110c4816110a9565b82525050565b600081519050919050565b600082825260208201905092915050565b60005b838110156111045780820151818401526020810190506110e9565b83811115611113576000848401525b50505050565b6000601f19601f8301169050919050565b6000611135826110ca565b61113f81856110d5565b935061114f8185602086016110e6565b61115881611119565b840191505092915050565b60008115159050919050565b61117881611163565b82525050565b600061010083016000830151611197600086018261108b565b5060208301516111aa602086018261109a565b5060408301516111bd60408601826110bb565b5060608301516111d060608601826110bb565b50608083015184820360808601526111e8828261112a565b91505060a083015184820360a0860152611202828261112a565b91505060c083015161121760c086018261109a565b5060e083015161122a60e086018261116f565b508091505092915050565b6000602082019050818103600083015261124f818461117e565b905092915050565b61126081610ff6565b82525050565b600060208201905061127b6000830184611257565b92915050565b61128a81611079565b811461129557600080fd5b50565b6000813590506112a781611281565b92915050565b600080604083850312156112c4576112c3610fec565b5b60006112d285828601611298565b92505060206112e385828601611017565b9150509250929050565b600080fd5b600080fd5b7f4e487b7100000000000000000000000000000000000000000000000000000000600052604160045260246000fd5b61132f82611119565b810181811067ffffffffffffffff8211171561134e5761134d6112f7565b5b80604052505050565b6000611361610fe2565b905061136d8282611326565b919050565b600067ffffffffffffffff82111561138d5761138c6112f7565b5b61139682611119565b9050602081019050919050565b82818337600083830152505050565b60006113c56113c084611372565b611357565b9050828152602081018484840111156113e1576113e06112f2565b5b6113ec8482856113a3565b509392505050565b600082601f830112611409576114086112ed565b5b81356114198482602086016113b2565b91505092915050565b600080600080600060a0868803121561143e5761143d610fec565b5b600061144c88828901611298565b955050602061145d88828901611017565b945050604086013567ffffffffffffffff81111561147e5761147d610ff1565b5b61148a888289016113f4565b935050606086013567ffffffffffffffff8111156114ab576114aa610ff1565b5b6114b7888289016113f4565b92505060806114c888828901611017565b9150509295509295909350565b7f4e487b7100000000000000000000000000000000000000000000000000000000600052602260045260246000fd5b6000600282049050600182168061151c57607f821691505b60208210810361152f5761152e6114d5565b5b50919050565b600082825260208201905092915050565b7f5265656e7472616e637947756172643a207265656e7472616e742063616c6c00600082015250565b600061157c601f83611535565b915061158782611546565b602082019050919050565b600060208201905081810360008301526115ab8161156f565b9050919050565b6000815190506115c181611281565b92915050565b6000602082840312156115dd576115dc610fec565b5b60006115eb848285016115b2565b91505092915050565b7f4e6f7420656e6f75676820657468657220666f72206c697374696e6720666565600082015250565b600061162a602083611535565b9150611635826115f4565b602082019050919050565b600060208201905081810360008301526116598161161d565b9050919050565b61166981611079565b82525050565b60006060820190506116846000830186611660565b6116916020830185611660565b61169e6040830184611257565b949350505050565b600060a0820190506116bb6000830188611660565b6116c86020830187611257565b6116d56040830186611660565b6116e26060830185611660565b6116ef6080830184611257565b9695505050505050565b7f4e6f7420656e6f75676820657468657220746f20636f7665722061736b696e6760008201527f2070726963650000000000000000000000000000000000000000000000000000602082015250565b6000611755602683611535565b9150611760826116f9565b604082019050919050565b6000602082019050818103600083015261178481611748565b9050919050565b61179481611163565b82525050565b60006040820190506117af6000830185611660565b6117bc602083018461178b565b9392505050565b6000819050919050565b60006117e86117e36117de84611059565b6117c3565b611059565b9050919050565b60006117fa826117cd565b9050919050565b600061180c826117ef565b9050919050565b61181c81611801565b82525050565b600060a0820190506118376000830188611660565b6118446020830187611257565b6118516040830186611813565b61185e6060830185611813565b61186b6080830184611257565b9695505050505050565b7f5072696365206d757374206265206174206c6561737420312077656900000000600082015250565b60006118ab601c83611535565b91506118b682611875565b602082019050919050565b600060208201905081810360008301526118da8161189e565b9050919050565b7f436f756e7465723a2064656372656d656e74206f766572666c6f770000000000600082015250565b6000611917601b83611535565b9150611922826118e1565b602082019050919050565b600060208201905081810360008301526119468161190a565b905091905056fea264697066735822122026d766148af1e2b91c20a4dabacbe96c17bd6b8b8f766347a71e59d57b13c89e64736f6c634300080d0033",
  "immutableReferences": {},
  "source": "// SPDX-License-Identifier: MIT\npragma solidity ^0.8.0;\n\nimport \"./@openzeppelin/contracts/utils/Counters.sol\";\nimport \"./@openzeppelin/contracts/token/ERC721/ERC721.sol\";\nimport \"./@openzeppelin/contracts/security/ReentrancyGuard.sol\";\n\ncontract Marketplace is ReentrancyGuard {\n  using Counters for Counters.Counter;\n  Counters.Counter private _nftsSold;\n  Counters.Counter private _nftCount;\n  uint256 public LISTING_FEE = 0.0001 ether;\n  address payable private _marketOwner;\n  mapping(uint256 => Token) private _idToToken;\n\n  struct Token {\n       address nftContract;\n       uint256 tokenId;\n       address payable seller;\n       address payable owner;\n       string tokenURI;\n       string name;\n       uint256 price;\n       bool isListed;\n   }\n\n  event NFTListed(\n    address nftContract,\n    uint256 tokenId,\n    address seller,\n    address owner,\n    uint256 price\n  );\n  event NFTSold(\n    address nftContract,\n    uint256 tokenId,\n    address seller,\n    address owner,\n    uint256 price\n  );\n\n  constructor() {\n    _marketOwner = payable(msg.sender);\n  }\n\n\n  // List the NFT on the marketplace\n  function listNFT(address _nftContract, uint256 _tokenId, string memory _name, string memory _tokenURI, uint _price) public payable nonReentrant {\n    require(msg.value > 0, \"Price must be at least 1 wei\");\n    require(msg.value == LISTING_FEE, \"Not enough ether for listing fee\");\n\n    IERC721(_nftContract).transferFrom(msg.sender, address(this), _tokenId);\n    \n    _nftCount.increment();\n\n    _idToToken[_tokenId] = Token(\n      _nftContract,\n      _tokenId, \n      payable(msg.sender),\n      payable(msg.sender),\n      _tokenURI, \n      _name, \n      _price,\n      true\n    );\n\n    emit NFTListed(_nftContract, _tokenId, msg.sender, address(this), _price);\n  }\n\n  // Buy an NFT\n  function buyNFT(address _nftContract, uint256 _tokenId) public payable nonReentrant {\n    address owner = IERC721(_nftContract).ownerOf(_tokenId);\n    Token storage nft = _idToToken[_tokenId];\n    require(msg.value >= nft.price, \"Not enough ether to cover asking price\");\n\n    address payable buyer = payable(msg.sender);\n    payable(nft.seller).transfer(msg.value);\n \n    IERC721(_nftContract).transferFrom(owner, msg.sender, nft.tokenId);\n    IERC721(_nftContract).setApprovalForAll(msg.sender, true);\n\n    _marketOwner.transfer(LISTING_FEE);\n    nft.seller = buyer;\n    nft.isListed = false;\n\n    _nftsSold.increment();\n    emit NFTSold(_nftContract, nft.tokenId, nft.seller, buyer, msg.value);\n  }\n\n  // Resell an NFT purchased from the marketplace\n  function resellNFT(address _nftContract, uint256 _tokenId) public payable nonReentrant {\n    address owner = IERC721(_nftContract).ownerOf(_tokenId);\n    require(msg.value == LISTING_FEE, \"Not enough ether for listing fee\");\n\n    // UPDATE\n    IERC721(_nftContract).transferFrom(owner, address(this), _tokenId);\n\n    Token storage nft = _idToToken[_tokenId];\n    nft.seller = payable(msg.sender);\n    // nft.owner = payable(address(this));\n    nft.isListed = true;\n\n    _nftsSold.decrement();\n    emit NFTListed(_nftContract, _tokenId, msg.sender, address(this), LISTING_FEE);\n  }\n\n  function getListingFee() public view returns (uint256) {\n    return LISTING_FEE;\n  }\n\n  function getTokenForId(uint256 _tokenId) public view returns (Token memory) {\n       return _idToToken[_tokenId];\n   }\n\n   function getMarketPlaceBalance() public view returns(uint256) {\n       //https://docs.soliditylang.org/en/develop/units-and-global-variables.html#address-related\n       return address(this).balance;\n   }\n\n   function getItemsCount() public view returns(uint256) {\n       return _nftCount.current();\n   }\n   function getItemsSold() public view returns(uint256) {\n       return _nftsSold.current();\n   }\n}\n",
  "sourcePath": "/Users/ujjwalsrivastava/Downloads/final-2/contracts/Marketplace.sol",
  "compiler": {
    "name": "solc",
    "version": "0.8.13+commit.abaa5c0e.Emscripten.clang"
  },
  "schemaVersion": "3.4.13",
  "updatedAt": "2023-05-13T04:05:59.840Z",
  "networkType": "ethereum",
  "devdoc": {
    "kind": "dev",
    "methods": {},
    "version": 1
  },
  "userdoc": {
    "kind": "user",
    "methods": {},
    "version": 1
  }
}